S00B00004C43442E7372656346
S113000045C0000060C000005EC000005CC000008D
S11300105AC0000058C0000056C0000054C0000080
S113002052C0000050C000004EC000004CC0000090
S11300304AC0000048C0000046C0000044C00000A0
S113004042C0000040C000003EC000003CC00000B0
S11300503AC0000038C0000036C0000034C00000C0
S113006032C0000030C000002EC000002CC00000D0
S11300702AC0000028C0000026C0000024C00000E0
S113008022C0000020C000001EC0000011241FBEBA
S1130090CFEFD0E1DEBFCDBF11E0A0E0B1E0EEE0F4
S11300A0F2E000E00BBF02C007900D92AE30B10742
S11300B0D9F721E0AEE0B1E001C01D92A031B20752
S11300C0E1F799D0A2C09CCFC29A00000000C29868
S11300D0089511BAC098C19A979B03C0F5DF979908
S11300E0FDCF8FEF81BB0895CF93C82FF2DFC2BB42
S11300F0C098C198E9DF12BACF91089587B3876099
S113010087BB85EA9EE00197F1F700C0000088E311
S1130110EBDF84E694E00197F1F700C0000088E388
S1130120E3DF84E694E00197F1F700C0000088E380
S1130130DBDF92E39A95F1F781E0D6DF83EF91E07C
S11301400197F1F700C000008EE0CEDF83EF91E06D
S11301500197F1F700C000000895CF93C82FB9DFCD
S1130160C2BBC09AC198B0DF12BA87EC90E0019785
S1130170F1F700C00000CF910895CF93DF93EC0115
S113018081E090E090930F0180930E0188818111AA
S113019005C012C0419711F480ECA6DF8991DDDF20
S11301A080910E0190910F01019690930F0180931D
S11301B00E0128812111EECF10920F0110920E0131
S11301C0DF91CF9108956230710549F481548CDF39
S11301D084E694E00197F1F700C0000008956130CF
S11301E0710541F4815880DF84E694E00197F1F7CA
S11301F000C00000089582DF61E070E081E090E0DB
S1110200E2DF80E091E0B9DFFFCFF894FFCF9A
S111020E48656C6C6F20576F726C64210000A1
S9030000FC
